{
  "contractName": "SecureShare",
  "abi": [
    {
      "anonymous": false,
      "inputs": [
        {
          "indexed": false,
          "name": "name",
          "type": "string"
        },
        {
          "indexed": false,
          "name": "password",
          "type": "string"
        },
        {
          "indexed": false,
          "name": "accountAddress",
          "type": "address"
        },
        {
          "indexed": false,
          "name": "accountType",
          "type": "string"
        }
      ],
      "name": "AddedUser",
      "type": "event",
      "signature": "0x5aa8969e2eb70dbb458572ce335f13be6389ce3003ce1ed859e8dc8760b01703"
    },
    {
      "anonymous": false,
      "inputs": [
        {
          "indexed": false,
          "name": "ipfsValue",
          "type": "string"
        },
        {
          "indexed": false,
          "name": "fileName",
          "type": "string"
        },
        {
          "indexed": false,
          "name": "sender",
          "type": "address"
        },
        {
          "indexed": false,
          "name": "receiver",
          "type": "address"
        },
        {
          "indexed": false,
          "name": "time",
          "type": "string"
        }
      ],
      "name": "ShareFile",
      "type": "event",
      "signature": "0x01351c85acc5bf139767f2267f4a8053ddaf083b71343214be5dce62896f5451"
    },
    {
      "anonymous": false,
      "inputs": [
        {
          "indexed": false,
          "name": "value",
          "type": "bool"
        }
      ],
      "name": "Success",
      "type": "event",
      "signature": "0x3b0a8ddef325df2bfdfa6b430ae4c8421841cd135bfa8fb5e432f200787520bb"
    },
    {
      "anonymous": false,
      "inputs": [
        {
          "indexed": false,
          "name": "value",
          "type": "bool"
        }
      ],
      "name": "Fail",
      "type": "event",
      "signature": "0x5757b10b68d48e899bf7c1bd35fc24a95688acaed3822dba8cc723e4a3038256"
    },
    {
      "constant": false,
      "inputs": [
        {
          "name": "name",
          "type": "string"
        },
        {
          "name": "password",
          "type": "string"
        },
        {
          "name": "accountAddress",
          "type": "address"
        },
        {
          "name": "accountType",
          "type": "string"
        }
      ],
      "name": "registerUser",
      "outputs": [],
      "payable": false,
      "stateMutability": "nonpayable",
      "type": "function",
      "signature": "0xc45dd7dd"
    },
    {
      "constant": false,
      "inputs": [
        {
          "name": "storedHash",
          "type": "string"
        },
        {
          "name": "fileName",
          "type": "string"
        },
        {
          "name": "sender",
          "type": "address"
        },
        {
          "name": "receiver",
          "type": "address"
        },
        {
          "name": "time",
          "type": "string"
        }
      ],
      "name": "uploadHash",
      "outputs": [],
      "payable": false,
      "stateMutability": "nonpayable",
      "type": "function",
      "signature": "0xcfdebdb8"
    },
    {
      "constant": true,
      "inputs": [
        {
          "name": "fId",
          "type": "uint256"
        },
        {
          "name": "receiver",
          "type": "address"
        }
      ],
      "name": "getFile",
      "outputs": [
        {
          "name": "",
          "type": "string"
        },
        {
          "name": "",
          "type": "string"
        },
        {
          "name": "",
          "type": "address"
        },
        {
          "name": "",
          "type": "address"
        },
        {
          "name": "",
          "type": "string"
        }
      ],
      "payable": false,
      "stateMutability": "view",
      "type": "function",
      "signature": "0xea2e4e0e"
    },
    {
      "constant": true,
      "inputs": [
        {
          "name": "receiver",
          "type": "address"
        }
      ],
      "name": "getFileId",
      "outputs": [
        {
          "name": "",
          "type": "uint256"
        }
      ],
      "payable": false,
      "stateMutability": "view",
      "type": "function",
      "signature": "0xd417c9f8"
    },
    {
      "constant": false,
      "inputs": [
        {
          "name": "user",
          "type": "string"
        },
        {
          "name": "password",
          "type": "string"
        }
      ],
      "name": "authenticateUser",
      "outputs": [],
      "payable": false,
      "stateMutability": "nonpayable",
      "type": "function",
      "signature": "0x516a5435"
    }
  ],
  "bytecode": "0x60806040526000805534801561001457600080fd5b50611742806100246000396000f3fe60806040526004361061006d576000357c0100000000000000000000000000000000000000000000000000000000900463ffffffff168063516a543514610072578063c45dd7dd146101d1578063cfdebdb8146103e7578063d417c9f81461061d578063ea2e4e0e14610682575b600080fd5b34801561007e57600080fd5b506101cf6004803603604081101561009557600080fd5b81019080803590602001906401000000008111156100b257600080fd5b8201836020820111156100c457600080fd5b803590602001918460018302840111640100000000831117156100e657600080fd5b91908080601f016020809104026020016040519081016040528093929190818152602001838380828437600081840152601f19601f8201169050808301925050505050505091929192908035906020019064010000000081111561014957600080fd5b82018360208201111561015b57600080fd5b8035906020019184600183028401116401000000008311171561017d57600080fd5b91908080601f016020809104026020016040519081016040528093929190818152602001838380828437600081840152601f19601f820116905080830192505050505050509192919290505050610894565b005b3480156101dd57600080fd5b506103e5600480360360808110156101f457600080fd5b810190808035906020019064010000000081111561021157600080fd5b82018360208201111561022357600080fd5b8035906020019184600183028401116401000000008311171561024557600080fd5b91908080601f016020809104026020016040519081016040528093929190818152602001838380828437600081840152601f19601f820116905080830192505050505050509192919290803590602001906401000000008111156102a857600080fd5b8201836020820111156102ba57600080fd5b803590602001918460018302840111640100000000831117156102dc57600080fd5b91908080601f016020809104026020016040519081016040528093929190818152602001838380828437600081840152601f19601f820116905080830192505050505050509192919290803573ffffffffffffffffffffffffffffffffffffffff1690602001909291908035906020019064010000000081111561035f57600080fd5b82018360208201111561037157600080fd5b8035906020019184600183028401116401000000008311171561039357600080fd5b91908080601f016020809104026020016040519081016040528093929190818152602001838380828437600081840152601f19601f820116905080830192505050505050509192919290505050610a6e565b005b3480156103f357600080fd5b5061061b600480360360a081101561040a57600080fd5b810190808035906020019064010000000081111561042757600080fd5b82018360208201111561043957600080fd5b8035906020019184600183028401116401000000008311171561045b57600080fd5b91908080601f016020809104026020016040519081016040528093929190818152602001838380828437600081840152601f19601f820116905080830192505050505050509192919290803590602001906401000000008111156104be57600080fd5b8201836020820111156104d057600080fd5b803590602001918460018302840111640100000000831117156104f257600080fd5b91908080601f016020809104026020016040519081016040528093929190818152602001838380828437600081840152601f19601f820116905080830192505050505050509192919290803573ffffffffffffffffffffffffffffffffffffffff169060200190929190803573ffffffffffffffffffffffffffffffffffffffff1690602001909291908035906020019064010000000081111561059557600080fd5b8201836020820111156105a757600080fd5b803590602001918460018302840111640100000000831117156105c957600080fd5b91908080601f016020809104026020016040519081016040528093929190818152602001838380828437600081840152601f19601f820116905080830192505050505050509192919290505050610dd1565b005b34801561062957600080fd5b5061066c6004803603602081101561064057600080fd5b81019080803573ffffffffffffffffffffffffffffffffffffffff1690602001909291905050506111d7565b6040518082815260200191505060405180910390f35b34801561068e57600080fd5b506106db600480360360408110156106a557600080fd5b8101908080359060200190929190803573ffffffffffffffffffffffffffffffffffffffff169060200190929190505050611220565b6040518080602001806020018673ffffffffffffffffffffffffffffffffffffffff1673ffffffffffffffffffffffffffffffffffffffff1681526020018573ffffffffffffffffffffffffffffffffffffffff1673ffffffffffffffffffffffffffffffffffffffff16815260200180602001848103845289818151815260200191508051906020019080838360005b8381101561078757808201518184015260208101905061076c565b50505050905090810190601f1680156107b45780820380516001836020036101000a031916815260200191505b50848103835288818151815260200191508051906020019080838360005b838110156107ed5780820151818401526020810190506107d2565b50505050905090810190601f16801561081a5780820380516001836020036101000a031916815260200191505b50848103825285818151815260200191508051906020019080838360005b83811015610853578082015181840152602081019050610838565b50505050905090810190601f1680156108805780820380516001836020036101000a031916815260200191505b509850505050505050505060405180910390f35b6001826040518082805190602001908083835b6020831015156108cc57805182526020820191506020810190506020830392506108a7565b6001836020036101000a038019825116818451168082178552505050505050905001915050908152602001604051809103902060020160009054906101000a900473ffffffffffffffffffffffffffffffffffffffff16604051602001808273ffffffffffffffffffffffffffffffffffffffff1673ffffffffffffffffffffffffffffffffffffffff166c010000000000000000000000000281526014019150506040516020818303038152906040528051906020012033604051602001808273ffffffffffffffffffffffffffffffffffffffff1673ffffffffffffffffffffffffffffffffffffffff166c01000000000000000000000000028152601401915050604051602081830303815290604052805190602001201415610a2d577f3b0a8ddef325df2bfdfa6b430ae4c8421841cd135bfa8fb5e432f200787520bb6001604051808215151515815260200191505060405180910390a1610a6a565b7f3b0a8ddef325df2bfdfa6b430ae4c8421841cd135bfa8fb5e432f200787520bb6000604051808215151515815260200191505060405180910390a15b5050565b836001856040518082805190602001908083835b602083101515610aa75780518252602082019150602081019050602083039250610a82565b6001836020036101000a03801982511681845116808217855250505050505090500191505090815260200160405180910390206000019080519060200190610af09291906115f1565b50826001856040518082805190602001908083835b602083101515610b2a5780518252602082019150602081019050602083039250610b05565b6001836020036101000a03801982511681845116808217855250505050505090500191505090815260200160405180910390206001019080519060200190610b739291906115f1565b50816001856040518082805190602001908083835b602083101515610bad5780518252602082019150602081019050602083039250610b88565b6001836020036101000a038019825116818451168082178552505050505050905001915050908152602001604051809103902060020160006101000a81548173ffffffffffffffffffffffffffffffffffffffff021916908373ffffffffffffffffffffffffffffffffffffffff1602179055507f5aa8969e2eb70dbb458572ce335f13be6389ce3003ce1ed859e8dc8760b01703848484846040518080602001806020018573ffffffffffffffffffffffffffffffffffffffff1673ffffffffffffffffffffffffffffffffffffffff16815260200180602001848103845288818151815260200191508051906020019080838360005b83811015610cc0578082015181840152602081019050610ca5565b50505050905090810190601f168015610ced5780820380516001836020036101000a031916815260200191505b50848103835287818151815260200191508051906020019080838360005b83811015610d26578082015181840152602081019050610d0b565b50505050905090810190601f168015610d535780820380516001836020036101000a031916815260200191505b50848103825285818151815260200191508051906020019080838360005b83811015610d8c578082015181840152602081019050610d71565b50505050905090810190601f168015610db95780820380516001836020036101000a031916815260200191505b5097505050505050505060405180910390a150505050565b600360008373ffffffffffffffffffffffffffffffffffffffff1673ffffffffffffffffffffffffffffffffffffffff1681526020019081526020016000205460008190555060a0604051908101604052808681526020018581526020013373ffffffffffffffffffffffffffffffffffffffff1681526020018373ffffffffffffffffffffffffffffffffffffffff16815260200182815250600260008473ffffffffffffffffffffffffffffffffffffffff1673ffffffffffffffffffffffffffffffffffffffff1681526020019081526020016000206000805481526020019081526020016000206000820151816000019080519060200190610ed8929190611671565b506020820151816001019080519060200190610ef5929190611671565b5060408201518160020160006101000a81548173ffffffffffffffffffffffffffffffffffffffff021916908373ffffffffffffffffffffffffffffffffffffffff16021790555060608201518160030160006101000a81548173ffffffffffffffffffffffffffffffffffffffff021916908373ffffffffffffffffffffffffffffffffffffffff1602179055506080820151816004019080519060200190610fa0929190611671565b509050506001600360008473ffffffffffffffffffffffffffffffffffffffff1673ffffffffffffffffffffffffffffffffffffffff168152602001908152602001600020600082825401925050819055507f01351c85acc5bf139767f2267f4a8053ddaf083b71343214be5dce62896f545185858585856040518080602001806020018673ffffffffffffffffffffffffffffffffffffffff1673ffffffffffffffffffffffffffffffffffffffff1681526020018573ffffffffffffffffffffffffffffffffffffffff1673ffffffffffffffffffffffffffffffffffffffff16815260200180602001848103845289818151815260200191508051906020019080838360005b838110156110c45780820151818401526020810190506110a9565b50505050905090810190601f1680156110f15780820380516001836020036101000a031916815260200191505b50848103835288818151815260200191508051906020019080838360005b8381101561112a57808201518184015260208101905061110f565b50505050905090810190601f1680156111575780820380516001836020036101000a031916815260200191505b50848103825285818151815260200191508051906020019080838360005b83811015611190578082015181840152602081019050611175565b50505050905090810190601f1680156111bd5780820380516001836020036101000a031916815260200191505b509850505050505050505060405180910390a15050505050565b6000600360008373ffffffffffffffffffffffffffffffffffffffff1673ffffffffffffffffffffffffffffffffffffffff168152602001908152602001600020549050919050565b6060806000806060600260008773ffffffffffffffffffffffffffffffffffffffff1673ffffffffffffffffffffffffffffffffffffffff1681526020019081526020016000206000888152602001908152602001600020600001600260008873ffffffffffffffffffffffffffffffffffffffff1673ffffffffffffffffffffffffffffffffffffffff1681526020019081526020016000206000898152602001908152602001600020600101600260008973ffffffffffffffffffffffffffffffffffffffff1673ffffffffffffffffffffffffffffffffffffffff16815260200190815260200160002060008a815260200190815260200160002060020160009054906101000a900473ffffffffffffffffffffffffffffffffffffffff16600260008a73ffffffffffffffffffffffffffffffffffffffff1673ffffffffffffffffffffffffffffffffffffffff16815260200190815260200160002060008b815260200190815260200160002060030160009054906101000a900473ffffffffffffffffffffffffffffffffffffffff16600260008b73ffffffffffffffffffffffffffffffffffffffff1673ffffffffffffffffffffffffffffffffffffffff16815260200190815260200160002060008c8152602001908152602001600020600401848054600181600116156101000203166002900480601f01602080910402602001604051908101604052809291908181526020018280546001816001161561010002031660029004801561149e5780601f106114735761010080835404028352916020019161149e565b820191906000526020600020905b81548152906001019060200180831161148157829003601f168201915b50505050509450838054600181600116156101000203166002900480601f01602080910402602001604051908101604052809291908181526020018280546001816001161561010002031660029004801561153a5780601f1061150f5761010080835404028352916020019161153a565b820191906000526020600020905b81548152906001019060200180831161151d57829003601f168201915b50505050509350808054600181600116156101000203166002900480601f0160208091040260200160405190810160405280929190818152602001828054600181600116156101000203166002900480156115d65780601f106115ab576101008083540402835291602001916115d6565b820191906000526020600020905b8154815290600101906020018083116115b957829003601f168201915b50505050509050945094509450945094509295509295909350565b828054600181600116156101000203166002900490600052602060002090601f016020900481019282601f1061163257805160ff1916838001178555611660565b82800160010185558215611660579182015b8281111561165f578251825591602001919060010190611644565b5b50905061166d91906116f1565b5090565b828054600181600116156101000203166002900490600052602060002090601f016020900481019282601f106116b257805160ff19168380011785556116e0565b828001600101855582156116e0579182015b828111156116df5782518255916020019190600101906116c4565b5b5090506116ed91906116f1565b5090565b61171391905b8082111561170f5760008160009055506001016116f7565b5090565b9056fea165627a7a72305820b92b93b80222b165cc4bd37382565b5568ea354ddb578b53184872e6b428de9d0029",
  "source": "// SPDX-License-Identifier: MIT\npragma solidity >=0.4.21 <=0.8.4;\n\ncontract SecureShare {\n\n\nuint fileId=0;\n\nstruct SharedData{\n    \n    string storedHash;\n    string fileName;\n    address sender;\n    address receiver;\n    string time;\n   \n}\n\nstruct UserInfo{\n  string name;\n  string password;\n  address accountAddress;\n  \n}\n\nevent AddedUser(\n  string name,\n  string password,\n  address accountAddress,\n  string accountType\n\n\n);\n\n\n  event ShareFile(\n    string ipfsValue,\n    string fileName,\n    address sender,\n    address receiver,\n    string time\n  );\n\n\nevent Success(\n  bool value\n);\n\nevent Fail(\n  bool value\n);\n\n  mapping(string => UserInfo) UserNameMapping;\n\n  mapping(address => mapping(uint => SharedData))  SharedDataMapping;\n\n  mapping(address=>uint) fileKey;\n\n  function registerUser(string memory name,string memory password,address accountAddress,string memory accountType) public{\n    UserNameMapping[name].name = name;\n    UserNameMapping[name].password = password;\n    UserNameMapping[name].accountAddress = accountAddress;\n    emit AddedUser(name, password, accountAddress, accountType);\n  }\n\n  function uploadHash(string memory storedHash,string memory fileName,address sender,address receiver,string memory time) public {\n     \n    fileId=fileKey[receiver]; \n   \n    SharedDataMapping[receiver][fileId] = SharedData(storedHash,fileName,msg.sender,receiver,time);\n    \n    fileKey[receiver]+=1;\n    \n    emit ShareFile(storedHash,fileName,sender,receiver,time);\n    \n  }\n  \n  function getFile(uint fId,address receiver) public view returns(string memory,string memory,address,address,string memory){\n      \n      return (SharedDataMapping[receiver][fId].storedHash,SharedDataMapping[receiver][fId].fileName,\n      SharedDataMapping[receiver][fId].sender,SharedDataMapping[receiver][fId].receiver,SharedDataMapping[receiver][fId].time);\n  }\n  \n  function getFileId(address receiver) public view returns(uint){\n    return fileKey[receiver];\n  }\n\n  function  authenticateUser(string memory user,string memory password) public {\n    if( (keccak256(abi.encodePacked(msg.sender))) == (keccak256(abi.encodePacked(UserNameMapping[user].accountAddress)))){\n      emit Success(true);\n    }\n    else{\n      emit Success(false);\n    }\n  }\n\n}\n",
  "sourcePath": "C:/Users/HP/Desktop/Secure-Share/contracts/SecureShare.sol",
  "compiler": {
    "name": "solc",
    "version": "0.5.0+commit.1d4f565a.Emscripten.clang"
  },
  "schemaVersion": "3.0.1",
  "updatedAt": "2021-07-18T08:40:23.197Z",
  "devdoc": {
    "methods": {}
  },
  "userdoc": {
    "methods": {}
  }
}